:020000040000FA
:0400000028EF01F0F4
:08000800DF50375311E0C96E0F
:0200100005D019
:0800180025EF01F09E96DE5079
:100020003707D9CF00F7DACF01F73B4F8B721000BB
:100030003B4F8B723AC78CFF9E9638C7FAFF3951F7
:10004000F96E3A0E356F3A95000E386F580E396FCB
:1000500031C7FAFF3251F96E3A850D0E366F000E38
:10006000386F6E0E396F31C7FAFF3251F96E362F85
:10007000F6D7352FE8D7020E356F28913A95000E46
:10008000386F8E0E396F31C7FAFF3251F96E3A85EB
:100090000D0E366F000E386FA40E396F31C7FAFFA0
:1000A0003251F96E362FF6D7352FE8D72881000068
:1000B0000A0E356F3A95000E386FC60E396F31C78C
:1000C000FAFF3251F96E3A85030E366F000E386F23
:1000D000DC0E396F31C7FAFF3251F96E362FF6D781
:1000E000080E376F020E366F000E386FF80E396F3C
:1000F00031C7FAFF3251F96E362FF6D7352FDAD7DE
:100100000000720E356F3A95010E386F180E396F78
:1001100031C7FAFF3251F96E3A85030E366F010E80
:10012000386F2E0E396F31C7FAFF3251F96E362F04
:10013000F6D7080E376F020E366F010E386F4A0E73
:10014000396F31C7FAFF3251F96E362FF6D7352F96
:10015000DAD72981040E356F3A95010E386F6A0E91
:10016000396F31C7FAFF3251F96E3A85030E366F97
:10017000010E386F800E396F31C7FAFF3251F96EB8
:10018000362FF6D7080E376F020E366F010E386F16
:100190009C0E396F31C7FAFF3251F96E362FF6D700
:1001A000352FDAD72991600E356F3A95010E386FE9
:1001B000BC0E396F31C7FAFF3251F96E3A850D0E18
:1001C000366F010E386FD20E396F31C7FAFF3251D8
:1001D000F96E362FF6D7352FE8D7100E356F3A85E2
:1001E000010E386FF00E396F31C7FAFF3251F96ED8
:1001F0003A950D0E366F020E386F060E396F31C705
:10020000FAFF3251F96E362FF6D7352FE8D719D7C6
:1002100017EC01F095948C943A6B010E286F20EE48
:1002200000F01200000E386F420E396F1200020EFD
:10023000386F380E396F1200020E386F480E396F62
:1002400031C7FAFF3251F96EF7D79E908C721200C7
:10025000D9CFE5FFE1CFD9FF8A889398FF0E8C6E46
:10026000896A95928C829290929292940F0EC16EAE
:1002700093809382929A949E400EC76E250EC66E0E
:100280009E96C26A0F0EC16ECA90CA92070ECB6EBE
:10029000030EBB6EBA50F00B0C09BA6ECC6A898A99
:1002A000899ACA84939692909292929449EC0CF017
:1002B0000C0E10EC0CF019E1010E10EC0CF01FE12B
:1002C000020E10EC0CF024E1030E10EC0CF029E10E
:1002D000040E10EC0CF02EE1050E10EC0CF033E1E6
:1002E000060E10EC0CF038E140D034EC0CF008ECC9
:1002F00001F09F86D08E9D86F28CF28EFFD74BEC5C
:1003000002F0030EF76E7E0EF66E54EC02F0EDD79F
:100310004BEC02F00B0EF76E9E0EF66E54EC02F0F4
:10032000E4D74BEC02F0090EF76E6C0EF66E54EC4F
:1003300002F0DBD74BEC02F0080EF76E740EF66E8F
:1003400054EC02F0D2D74BEC02F0070EF76E1E0E03
:10035000F66E54EC02F0C9D74BEC02F00D0EF76EBE
:100360008E0EF66E54EC02F0C0D700EE00F00E0ECA
:10037000F76E760EF66E52EC0CF0B7D71801056EDC
:100380000065066B006A0CA3B1DA047A403A0812E1
:10039000027B123B0612206C1F6D10A3D1DCF622EB
:1003A0000060006112A311D008700EA311D040604C
:1003B00015F007F0003034120FC61E670168FF69A0
:1003C0000EA371D610A3D1DC0460A1E0FE7C066010
:1003D000A1E0027C3F60028CD1DC0EA371D6848642
:1003E00094873F6002861F6112871F47AC12004648
:1003F00001683F46FF680047016971D6013FAA12B4
:100400001F47AA1205607580003FAA12016018F00C
:100410006080FC6112800CA371D0FE600389F6221B
:100420000175F6226045DE124612FF696080C580C4
:10043000013FCA1202611580013FE0121580013FA1
:10044000EE121580013FE812206018F00EA3FF7E27
:10045000E0800480006111D0003E3012DE12FF788F
:10046000FE48FF68EE12017802480168046018F047
:10047000FF69701214A333F565F229F13763006444
:1004800045D3057329F245D3EE0000E0008000FC5F
:1004900000AA0000000000EE00F0040EF76EDA0E75
:1004A000F66E52EC0CF0120002EE00F00A000A00A8
:1004B0000900F5CFE1FF0900F5CFE2FF0900F5CF14
:1004C000E8FF0900F5CFEEFFE8CFEEFFE550E5507D
:1004D000E150E210F3E11200000291BBFF01B2B65D
:1004E000F8CFA2F881B1F846A190B4F81BA4F801A6
:1004F000B5F8FCA5D496B7E294BC45AFF6F6F6F68F
:100500003244F950AC8FFA0FF9F0A605F6F6F6F67C
:10051000F9F0A74CB38CFC0FAC0CA3D3301B8FFAB3
:100520000FB3453040226912D400000101010101DE
:1005300001010101010101000101007C75838B951E
:10054000B4B7BC91EBA4D970990506FA07BE06FAB8
:100550003FF6F6F6225207FA1FFEFEFEF1AC9BBCF8
:1005600045FA0FADA7F8D0A693AF8732F3274ABD5F
:100570009EAE8E32A49DF6BD8F76AF2E30989D56DE
:10058000168F5616308E00ECF8D0A693A78D32D970
:1005900006F22D32BEF801A746F35C02FB0732D209
:1005A0001C06F232CEF801A706F35C2C168CFC0870
:1005B000AC3BB3F8FFA6875612D49BBFF8FFAF93AE
:1005C0005F8F32DF2F30E50042B542A5D48DA7877B
:1005D00032AC2A2730F50000000000000000004582
:1005E000A39856D4F881BCF895AC22DC1256D406F8
:1005F000B8D406A8D4640A01E68AF4AA3B289AFC77
:1006000001BAD4F881BA06FA0FAA0AAAD4E606BF3C
:1006100093BEF81BAE2A1AF8005A0EF53B4B560A49
:10062000FC015A30404EF63B3C9F562A2AD4002209
:100630008652F8F0A7075A87F3171A3A5B12D422AA
:100640008652F8F0A70A5787F3171A3A6B12D41597
:1006500085227395522545A586FA0FB5D445E6F354
:100660003A821515D445E6F33A88D44507308C45CF
:10067000073084E6622645A33688D43E88D4F8F055
:10068000A7E745F4A586FA0F3BB2FC01B5D4455661
:10069000D445E6F456D445FA0F3AC40756D4AF22EF
:1006A000F8D3738FF9F052E607D256F8FFA6F80098
:1006B0007E56D41989AE93BE99EEF45676E6F4B917
:1006C0005645F256D445AA86FA0FBAD40000000067
:1006D00000000000000000E0004B0040A210610795
:1006E000620522207101720112060000F090F09064
:1006F000F0FF00000000000000000000D125D1251F
:1007000041306108321000EE620800EE620800EE2F
:100710000000000000000000000000007A000060FF
:1007200080631F610F62322200A21EF30AF055F0AF
:1007300000401C12017300330812806300A21EF3F4
:1007400065F000401C12017300431C1232221E127D
:100750000240FF720440FF710640017108400172BF
:1007600077A2E06A128A1F6BB281003A0172F06AC6
:10077000228A0F6BB282003A01711F6BB28121D1C4
:10078000108A1F6B258BB1DA3F6A158AB1DA208B8C
:10079000B1DAEE008001000022001EA201C2013287
:1007A0001AA214D00470403000120060047120318D
:1007B000001218124080102040201080B40019123E
:1007C000494D53534C492045796244207661646910
:1007D00057204E4945546C52600C61006500660814
:1007E000670A6E00A201D0AD701430081240602973
:1007F0006100A21CD0B0A214D0B03E141201704906
:1008000040046E381200704F40FC6E00D001FC14A2
:10081000FB153B0712006253E208129E3C957C00D8
:1008200063FE821BA200D2B06431D2007331D2FFCA
:100830003F31640033011203D26D343112017791DC
:10084000750582FF6300A200D2AD45341200769791
:1008500036FF1200A239F7B4F2336365641BF10D61
:10086000D3297345F205D329124510AB3838381017
:10087000FE7CF600026A0C6B3F6C0C6DEAA2B6DAE5
:10088000D6DC006ED42203660268606015F007F0C3
:1008900000301A1217C70877FF69F0A271D6EAA2D2
:1008A000B6DAD6DC0160A1E0FE7B0460A1E0027B49
:1008B0001F60028BB6DA0C60A1E0FE7D0D60A1E046
:1008C000027D1F60028DD6DCF0A271D684869487EB
:1008D0003F6002861F611287024678123F468212ED
:1008E0001F47FF690047016971D62A120268016338
:1008F0007080B5808A12FE680A637080D580013FDF
:10090000A21202611580013FBA121580013FC81280
:100910001580013FC212206018F0D422348ED422F8
:100920003E6601330366FE68013302681612FF79E2
:10093000FE49FF69C812017902490169046018F093
:1009400001764046FE766C12F2A233FE65F229F182
:100950001464006555D4157429F255D4EE008080D6
:100960008080808000800000000030023012FB7622
:1009700020606580004F00668413FF0000000100C6
:100980000C00000A0219060402080302002C000FE2
:100990000502082E0000050200000000006EA06D98
:1009A000086A066904680267196610640C630062CD
:1009B000066112A255FAD423406015F007F000300A
:1009C0005012D4230A23622312A265F5AE22C62256
:1009D000EC22013F1423013FEC22013FEC22013FB6
:1009E0007C22014F6613621212A265F500460035A3
:1009F00088128C13A1E70962A1E80462A1E90662EA
:100A0000A1EA01620042EE00AE2220819A23AC23CB
:100A1000016C0062006F12A255F5FFA30141006056
:100A20000441136006410D60094106601EF047D382
:100A3000EE0005609EE0EE000F45EE000F65FF76CC
:100A400012A255F5037403739A239A239A2323A2BF
:100A500055F519A441D3EE0023A265F50045EE003B
:100A600019A441D39A23026CBE23BB4B0A1341D372
:100A700023A255F5EE000065006017A255F004139F
:100A80001DA265F50F3544131AA445D30032321365
:100A900003C119A21EF165F000810FC201729A23F1
:100AA0001AA4036CFF72006F45D31DA255F5EE002A
:100AB00007C41FA41EF465F0008327A41EF465F08C
:100AC00000841AA445D3206018F00F653E1300651A
:100AD0003E13014C0212024C821323A265F500451D
:100AE000021219A441D3006F41D3013F02120A7EC2
:100AF000406018F0E0004A12E000D423606018F073
:100B00009413006E84130141FF740441FF73064186
:100B1000017309410174EE00004401740043017344
:100B20003843FF731844FF74EE00006B0044CE138B
:100B30000043CE133F43CE131F44BB6B006FEE0048
:100B40000863086429A233FE65F2EC23286329A216
:100B500033F665F2F223EE0029F045D3067329F14E
:100B600045D3067329F245D3EE0010017C547C6C0A
:100B7000447C7C7C7C6C1054FC006E78FC783F00DC
:100B8000761E3F1E800070A870F80BA8281B303816
:100B90001020000000001B081B1B0418EE01B4A26B
:100BA000E623B622017011D025300612FF7111D054
:100BB0001A6011D0256000310E1270C470441C12EE
:100BC00003C31E6003615C2215F514D0013F3C1283
:100BD00014D0FF7114D040231C12A1E77222A1E8A7
:100BE0008422A1E996229EE25012006615F607F6CD
:100BF00000363C1214D001712A12C4A21EF4006601
:100C0000014304660243086603430C661EF6EE00C9
:100C100014D0FF703423013FEE0014D00170342350
:100C2000EE0014D001703423013FEE0014D0FF70A9
:100C30003423EE0014D00173044300635C22342398
:100C4000013FEE0014D0FF73FF4303635C223423A3
:100C5000EE0000800567066804691F611065076281
:100C6000EE00E0400000C0400040E0000040604076
:100C7000004040400060E020000040C00040E00034
:100C80000080404000C0E000002040600040E08064
:100C90000000C040008060C00000C040008060C014
:100CA0000000C0800040600000C0C08000406000C4
:100CB00000C0C0C00000C0C00000C0C00000C0C074
:100CC000000040404040F000000040404040F00044
:100CD000000014D03566FF7600363813EE00B4A25B
:100CE000108C1E3C017C1E3C017C1E3C017C5E2362
:100CF0000A4B7223C091EE00017150131B60006B10
:100D000011D0003F017B11D0017025306213EE003D
:100D10001B6011D0017025307413108EE08DFF7EA2
:100D20001B60006BE1D0003F9013E1D09413D1D051
:100D3000017B017025308613004BA613FF7DFF7EDB
:100D4000013D8213C023013FC023017AC023A0804C
:100D5000076DD2800440FE7502450465EE0000A7D1
:100D600055F204A833FA65F229F0326D006EE5DD24
:100D7000057D29F1E5DD057D29F2E5DD00A765F2B8
:100D8000B4A2EE00006A1960EE002337E6001A12E2
:100D90004D4A204E393131395320464F5754524134
:100DA00053458020FF80000000630067E00017A229
:100DB0000060006111D0FF7111D0017108704030E6
:100DC0002612017115A212D0FF7012D001700271AB
:100DD0001F31381208601061046237640F650266C3
:100DE00011D051D40168A1E802620268A1E804624E
:100DF0000768A1E801620A68A1E803620B68A1E83C
:100E000002660F68A1E804660C68A1E801660D6837
:100E1000A1E803660142FF710242FF7003420171C3
:100E2000044201700146FF750246FF7403460175D6
:100E30000446017411D0003FB41251D4003FB812DF
:100E400056120177BA120173006801780038BC129B
:100E5000E0000860046129F315D0346029F715D04B
:100E6000006801780038D4120843E4120847E412FD
:100E70001E12E4120003F800B3F807A3D364F800CD
:100E8000B1F822A1F803B2F8FFA2E269E23017003C
:100E90000000000000007270C422782252F801B0F5
:100EA000F800A0C4C4E280E220A0E23C3080E2204E
:100EB000A0E23437302000000000000000000000F5
:100EC0000000000000000000000000000000000022
:100ED0000000000000000000000000000000000012
:100EE0000000000000000000000000000000000002
:100EF00000000000000000000000000000000000F2
:100F000000000000000000000000000000000000E1
:100F100000000000000000000000000000000000D1
:100F200000000000000000000000000000000000C1
:100F300000000000000000000000000000000000B1
:100F400000000000000000000000000000000000A1
:100F50000000000000000000000000000000000091
:100F60000000000000000000000000000000000081
:100F70000000000000008000000000800000000071
:100F8000000000000000000000000001FFFF000062
:100F9000000000020001000010003002000200000A
:100FA00000007801FFFE0000003F87F820000000ED
:100FB0000020300820000000003F87F020000000E3
:100FC00000007A20200000400000311020200000A6
:100FD000000000C8200000000000013FF8000000F1
:100FE0000000020008000000004006FC08000003AA
:100FF00080000201F8000C07C000010E00001E0F67
:10100000E00000F000003FBFF0000000000037FFEC
:10101000F8000000000067FFE8020000000067FF22
:10102000F8000000000043BFF8000004000043BFC8
:10103000F00000000000C3FFE00000000000C3FF5C
:10104000C0000000000081E000000000000181C03D
:1010500000000000000081C000000000000081C00E
:1010600000000000000081C000000000000081E0DE
:10107000000000000000C1FE000000000000C1FEF2
:1010800000000000000063FE00000000000063FCA0
:101090000000000000003FF80000000000003FF0EA
:1010A00030000000000003F070EEE3BBABB803F8C3
:1010B000F0A8A22A3AA000FDE0E8E22BBBA000FFC6
:1010C000C0C8A228AAA0007F80AEA3BBAAB8007F98
:1010D000000000000000006F000000000000006F32
:1010E0008000000000000077801DD5D5DDC00077AE
:1010F000C0115D549140005BC0115DD499C0005B8C
:10110000C01155149180006DC01DD51C9D40006D0F
:10111000C00000000000006DC00000000000006D75
:10112000C000000000000033800000000000003F0D
:101130003FFFFFFFFFFF001F000000000000000E48
:10114000000000000000000E000000000000000E83
:10115000000000000000000E000000000000000E73
:10116000000000000000000E000000000000000E63
:0611700000000000000079
:101800000E200710072007400B100B200B400D1077
:101810000D200D400E100E4007800B800D800E80B5
:101820001EEC0CF00AE08B8494923B4F8B721FEC01
:101830000CF0FBE1010F8B9494821200336F2B911B
:10184000F00E33150FE13351E846F66E180EF76EC1
:1018500009008950F00BF510896E09008150F514CC
:1018600001E12B812B51120007EE00F0EE6AEAA68F
:10187000FDD7F86A07EE00F00701800E306F28935D
:101880002881180E316FCC0E326F949449EC0CF015
:1018900012002B6B9250F00B926E9350F009936EE6
:1018A000F19E12000A000A000900F5CFE1FF0900CD
:1018B000F5CFE2FF0900F5CFEEFFE550E150E21071
:1018C000F9E1120031C7FAFF3251F96E00C7D9FFB2
:1018D00001C7DAFF28511DE022C7E9FFE946EE50B3
:1018E000E16EF66EED50301103E6E26EE65004D084
:1018F000A00FF76E0900F550EF2A01E3EC2A400D26
:10190000400EF424316FF3CF32F71000285101E07C
:101910001000100E2503F3502211266F010E226FC6
:10192000020E256F2883190E316F300E326F1000B2
:10193000180E316FCC0E326F1000180E316FCC0EB6
:10194000326F100022C7E9FFE946EF2A01E3EC2AD3
:10195000190E316F5A0E326F100022C7E9FFE946A7
:10196000EF2A01E3EC2A180E316FCC0E326F100013
:10197000190E316F7A0E326F1000180E316FCC0EC7
:10198000326F100022C7E9FFE946EE50E16EF66EB5
:10199000ED50301103E6E26EE65004D0A00FF76E72
:1019A0000900F550EF2A01E3EC2A2F6F190E316F71
:1019B000B60E326F100022C7E9FFE946EE50E16E25
:1019C000F66EED50301103E6E26EE65004D0A00F43
:1019D000F76E0900F550EF2A01E3EC2A2E6F22C7BB
:1019E000E9FFE9462EC7EEFF2FC7EFFF180E316F54
:1019F000CC0E326F100022C7E9FFE946EE50E16ECF
:101A0000F66EED50301103E6E26EE65004D0A00F02
:101A1000F76E0900F550EF2A01E3EC2A2F6F1A0E3A
:101A2000316F280E326F100022C7E9FFE946EF2A16
:101A300001E3EC2A180E316FCC0E326F100022C772
:101A4000E9FFE946EE50E16EF66EED50301103E627
:101A5000E26EE65004D0A00FF76E0900F550EF2AB1
:101A600001E3EC2A22C7E9FFE946EF6E180E316F59
:101A7000CC0E326F100022C7E9FFE946EF2A01E3DE
:101A8000EC2A180E316FCC0E326F1000180E316F29
:061A9000CC0E326F1000C5
:10200000F880B2F808A2E2D26420620CF8FFA1F8CE
:1020100006B1F8AA5101FBAA322291FF013B22B17D
:102020003012362890A0E0D0E1F8007381FBAF3A7F
:1020300029F8D273F89F5181A091B0F8CFA1D07345
:10204000202040FF012050FB823A3E92B3F851A37A
:10205000D390B2BBBDF881B1B4B5B7BABCF846A154
:10206000F8AFA2F8DDA4F8C6A5F8BAA7F8A1ACE2CB
:1020700069DCD7D7D7B6D7D7D7A6D4DCBE32F4FB26
:102080000A32EFDCAE226C9EFB0B32C29EFB0F3A93
:10209000FCF86FACF840B993F6DC29993A97F81040
:1020A000A7F808A946B793FEDC863AAD2E97F6B797
:1020B000DC29893AAD1787F6DC8E3A9EDC6926D496
:1020C00030C0F883ACF80AB9DC33C529993AC8DCCA
:1020D0003BCFF809A9A79776B729DC893AD687F6C6
:1020E00033E37B975616863ACF2E8E3ACF30BDDC3F
:1020F00016D430EFD7D7D756D41630F461C0E000ED
:102100003039222A3E20243426282E18141C10127E
:10211000F080F080F0808080F0507050F05050508F
:10212000F080F010F080F090F090F010F010F0904F
:10213000F0909090F0101010106020202070A0A05F
:10214000F020207A427022782252C419F800A09B15
:10215000B0E2E280E2E220A0E220A0E220A03C5334
:10216000983267AB2B8BB88832437B283044D3F846
:102170000A3B76F820177BBFFF013A78396E7A9FC9
:102180003078D3F8103D853D8FFF013A87179CFECC
:1021900035903082D3E29CAF2F228F5262E2E23E32
:1021A00098F804A8883AA4F804A836A78831AA8F1A
:1021B000FA0F52309400000000D3DCFEFEFEFEAEAB
:1021C000DC8EF130B9D4AA0AAAF805AF4A5D8DFCBD
:1021D00008AD2F8F3ACC8DFCD9AD30C5D322067314
:1021E00086739652F806AEF8D8AD02F6F6F6F6D536
:1021F00042FA0FD58EF6AE32DC3BEA1D1D30EA0105
:0A400000190E316F0C0E326F100024
:10404000020EE96EEC50301106E6E26EE906EFCFA3
:10405000E1FFE75007D0A00FF76EE906EFCFF6FFBC
:104060000800F550206F180E316FCC0E326F100023
:0E40700000F000F000F000F000F000F000F0B2
:10408000040EE96EEC50301106E6E26EE906EFCF61
:10409000E1FFE75007D0A00FF76EE906EFCFF6FF7C
:1040A0000800F550206F180E316FCC0E326F1000E3
:0E40B00000F000F000F000F000F000F000F072
:1040C000060EE96EEC50301106E6E26EE906EFCF1F
:1040D000E1FFE75007D0A00FF76EE906EFCFF6FF3C
:1040E0000800F550206F180E316FCC0E326F1000A3
:0E40F00000F000F000F000F000F000F000F032
:10410000080EE96EEC50301106E6E26EE906EFCFDC
:10411000E1FFE75007D0A00FF76EE906EFCFF6FFFB
:104120000800F550206F180E316FCC0E326F100062
:0E41300000F000F000F000F000F000F000F0F1
:104140000A0EE96EEC50301106E6E26EE906EFCF9A
:10415000E1FFE75007D0A00FF76EE906EFCFF6FFBB
:104160000800F550206F180E316FCC0E326F100022
:0E41700000F000F000F000F000F000F000F0B1
:104180000C0EE96EEC50301106E6E26EE906EFCF58
:10419000E1FFE75007D0A00FF76EE906EFCFF6FF7B
:1041A0000800F550206F180E316FCC0E326F1000E2
:0E41B00000F000F000F000F000F000F000F071
:1041C0000E0EE96EEC50301106E6E26EE906EFCF16
:1041D000E1FFE75007D0A00FF76EE906EFCFF6FF3B
:1041E0000800F550206F180E316FCC0E326F1000A2
:0E41F00000F000F000F000F000F000F000F031
:10420000100EE96EEC50301106E6E26EE906EFCFD3
:10421000E1FFE75007D0A00FF76EE906EFCFF6FFFA
:104220000800F550206F180E316FCC0E326F100061
:0E42300000F000F000F000F000F000F000F0F0
:10424000120EE96EEC50301106E6E26EE906EFCF91
:10425000E1FFE75007D0A00FF76EE906EFCFF6FFBA
:104260000800F550206F180E316FCC0E326F100021
:0E42700000F000F000F000F000F000F000F0B0
:10428000140EE96EEC50301106E6E26EE906EFCF4F
:10429000E1FFE75007D0A00FF76EE906EFCFF6FF7A
:1042A0000800F550206F180E316FCC0E326F1000E1
:0E42B00000F000F000F000F000F000F000F070
:1042C000160EE96EEC50301106E6E26EE906EFCF0D
:1042D000E1FFE75007D0A00FF76EE906EFCFF6FF3A
:1042E0000800F550206F180E316FCC0E326F1000A1
:0E42F00000F000F000F000F000F000F000F030
:10430000180EE96EEC50301106E6E26EE906EFCFCA
:10431000E1FFE75007D0A00FF76EE906EFCFF6FFF9
:104320000800F550206F180E316FCC0E326F100060
:0E43300000F000F000F000F000F000F000F0EF
:104340001A0EE96EEC50301106E6E26EE906EFCF88
:10435000E1FFE75007D0A00FF76EE906EFCFF6FFB9
:104360000800F550206F180E316FCC0E326F100020
:0E43700000F000F000F000F000F000F000F0AF
:104380001C0EE96EEC50301106E6E26EE906EFCF46
:10439000E1FFE75007D0A00FF76EE906EFCFF6FF79
:1043A0000800F550206F180E316FCC0E326F1000E0
:0E43B00000F000F000F000F000F000F000F06F
:1043C0001E0EE96EEC50301106E6E26EE906EFCF04
:1043D000E1FFE75007D0A00FF76EE906EFCFF6FF39
:1043E0000800F550206F180E316FCC0E326F1000A0
:0E43F00000F000F000F000F000F000F000F02F
:10440000002B01E3012B180E316FCC0E326F100020
:1044100000F000F000F000F000F000F000F000F01C
:1044200000F000F000F000F000F000F000F000F00C
:1044300000F000F000F000F000F000F000F000F0FC
:10444000022B01E3032B180E316FCC0E326F1000DC
:1044500000F000F000F000F000F000F000F000F0DC
:1044600000F000F000F000F000F000F000F000F0CC
:1044700000F000F000F000F000F000F000F000F0BC
:10448000042B01E3052B180E316FCC0E326F100098
:1044900000F000F000F000F000F000F000F000F09C
:1044A00000F000F000F000F000F000F000F000F08C
:1044B00000F000F000F000F000F000F000F000F07C
:1044C000062B01E3072B180E316FCC0E326F100054
:1044D00000F000F000F000F000F000F000F000F05C
:1044E00000F000F000F000F000F000F000F000F04C
:1044F00000F000F000F000F000F000F000F000F03C
:10450000082B01E3092B180E316FCC0E326F10000F
:1045100000F000F000F000F000F000F000F000F01B
:1045200000F000F000F000F000F000F000F000F00B
:1045300000F000F000F000F000F000F000F000F0FB
:104540000A2B01E30B2B180E316FCC0E326F1000CB
:1045500000F000F000F000F000F000F000F000F0DB
:1045600000F000F000F000F000F000F000F000F0CB
:1045700000F000F000F000F000F000F000F000F0BB
:104580000C2B01E30D2B180E316FCC0E326F100087
:1045900000F000F000F000F000F000F000F000F09B
:1045A00000F000F000F000F000F000F000F000F08B
:1045B00000F000F000F000F000F000F000F000F07B
:1045C0000E2B01E30F2B180E316FCC0E326F100043
:1045D00000F000F000F000F000F000F000F000F05B
:1045E00000F000F000F000F000F000F000F000F04B
:1045F00000F000F000F000F000F000F000F000F03B
:10460000102B01E3112B180E316FCC0E326F1000FE
:1046100000F000F000F000F000F000F000F000F01A
:1046200000F000F000F000F000F000F000F000F00A
:1046300000F000F000F000F000F000F000F000F0FA
:10464000122B01E3132B180E316FCC0E326F1000BA
:1046500000F000F000F000F000F000F000F000F0DA
:1046600000F000F000F000F000F000F000F000F0CA
:1046700000F000F000F000F000F000F000F000F0BA
:10468000142B01E3152B180E316FCC0E326F100076
:1046900000F000F000F000F000F000F000F000F09A
:1046A00000F000F000F000F000F000F000F000F08A
:1046B00000F000F000F000F000F000F000F000F07A
:1046C000162B01E3172B180E316FCC0E326F100032
:1046D00000F000F000F000F000F000F000F000F05A
:1046E00000F000F000F000F000F000F000F000F04A
:1046F00000F000F000F000F000F000F000F000F03A
:10470000182B01E3192B180E316FCC0E326F1000ED
:1047100000F000F000F000F000F000F000F000F019
:1047200000F000F000F000F000F000F000F000F009
:1047300000F000F000F000F000F000F000F000F0F9
:104740001A2B01E31B2B180E316FCC0E326F1000A9
:1047500000F000F000F000F000F000F000F000F0D9
:1047600000F000F000F000F000F000F000F000F0C9
:1047700000F000F000F000F000F000F000F000F0B9
:104780001C2B01E31D2B180E316FCC0E326F100065
:1047900000F000F000F000F000F000F000F000F099
:1047A00000F000F000F000F000F000F000F000F089
:1047B00000F000F000F000F000F000F000F000F079
:1047C0001E2B01E31F2B180E316FCC0E326F100021
:1047D00000F000F000F000F000F000F000F000F059
:1047E00000F000F000F000F000F000F000F000F049
:1047F00000F000F000F000F000F000F000F000F039
:10480000000701E20107180E316FCC0E326F100065
:1048100000F000F000F000F000F000F000F000F018
:1048200000F000F000F000F000F000F000F000F008
:1048300000F000F000F000F000F000F000F000F0F8
:10484000020701E20307180E316FCC0E326F100021
:1048500000F000F000F000F000F000F000F000F0D8
:1048600000F000F000F000F000F000F000F000F0C8
:1048700000F000F000F000F000F000F000F000F0B8
:10488000040701E20507180E316FCC0E326F1000DD
:1048900000F000F000F000F000F000F000F000F098
:1048A00000F000F000F000F000F000F000F000F088
:1048B00000F000F000F000F000F000F000F000F078
:1048C000060701E20707180E316FCC0E326F100099
:1048D00000F000F000F000F000F000F000F000F058
:1048E00000F000F000F000F000F000F000F000F048
:1048F00000F000F000F000F000F000F000F000F038
:10490000080701E20907180E316FCC0E326F100054
:1049100000F000F000F000F000F000F000F000F017
:1049200000F000F000F000F000F000F000F000F007
:1049300000F000F000F000F000F000F000F000F0F7
:104940000A0701E20B07180E316FCC0E326F100010
:1049500000F000F000F000F000F000F000F000F0D7
:1049600000F000F000F000F000F000F000F000F0C7
:1049700000F000F000F000F000F000F000F000F0B7
:104980000C0701E20D07180E316FCC0E326F1000CC
:1049900000F000F000F000F000F000F000F000F097
:1049A00000F000F000F000F000F000F000F000F087
:1049B00000F000F000F000F000F000F000F000F077
:1049C0000E0701E20F07180E316FCC0E326F100088
:1049D00000F000F000F000F000F000F000F000F057
:1049E00000F000F000F000F000F000F000F000F047
:1049F00000F000F000F000F000F000F000F000F037
:104A0000100701E21107180E316FCC0E326F100043
:104A100000F000F000F000F000F000F000F000F016
:104A200000F000F000F000F000F000F000F000F006
:104A300000F000F000F000F000F000F000F000F0F6
:104A4000120701E21307180E316FCC0E326F1000FF
:104A500000F000F000F000F000F000F000F000F0D6
:104A600000F000F000F000F000F000F000F000F0C6
:104A700000F000F000F000F000F000F000F000F0B6
:104A8000140701E21507180E316FCC0E326F1000BB
:104A900000F000F000F000F000F000F000F000F096
:104AA00000F000F000F000F000F000F000F000F086
:104AB00000F000F000F000F000F000F000F000F076
:104AC000160701E21707180E316FCC0E326F100077
:104AD00000F000F000F000F000F000F000F000F056
:104AE00000F000F000F000F000F000F000F000F046
:104AF00000F000F000F000F000F000F000F000F036
:104B0000180701E21907180E316FCC0E326F100032
:104B100000F000F000F000F000F000F000F000F015
:104B200000F000F000F000F000F000F000F000F005
:104B300000F000F000F000F000F000F000F000F0F5
:104B40001A0701E21B07180E316FCC0E326F1000EE
:104B500000F000F000F000F000F000F000F000F0D5
:104B600000F000F000F000F000F000F000F000F0C5
:104B700000F000F000F000F000F000F000F000F0B5
:104B80001C0701E21D07180E316FCC0E326F1000AA
:104B900000F000F000F000F000F000F000F000F095
:104BA00000F000F000F000F000F000F000F000F085
:104BB00000F000F000F000F000F000F000F000F075
:104BC0001E0701E21F07180E316FCC0E326F100066
:104BD00000F000F000F000F000F000F000F000F055
:104BE00000F000F000F000F000F000F000F000F045
:104BF00000F000F000F000F000F000F000F000F035
:104C000002D03BEF0DF01FEF0DF000F000F000F0D0
:104C100000F000F000F000F000F000F000F000F014
:104C200000F000F000F000F000F000F000F000F004
:104C300000F000F000F000F000F000F000F000F0F4
:104C4000275102E13BEF0DF01FEF0DF000F000F0F7
:104C500000F000F000F000F000F000F000F000F0D4
:104C600000F000F000F000F000F000F000F000F0C4
:104C700000F000F000F000F000F000F000F000F0B4
:104C8000205102E03BEF0DF01FEF0DF000F000F0BF
:104C900000F000F000F000F000F000F000F000F094
:104CA00000F000F000F000F000F000F000F000F084
:104CB00000F000F000F000F000F000F000F000F074
:104CC000215102E13BEF0DF01FEF0DF000F000F07D
:104CD00000F000F000F000F000F000F000F000F054
:104CE00000F000F000F000F000F000F000F000F044
:104CF00000F000F000F000F000F000F000F000F034
:104D0000295102E13BEF0DF01FEF0DF000F000F034
:104D100000F000F000F000F000F000F000F000F013
:104D200000F000F000F000F000F000F000F000F003
:104D300000F000F000F000F000F000F000F000F0F3
:104D40002A5102E13BEF0DF01FEF0DF000F000F0F3
:104D500000F000F000F000F000F000F000F000F0D3
:104D600000F000F000F000F000F000F000F000F0C3
:104D700000F000F000F000F000F000F000F000F0B3
:104D80002B91F00E33150FE13351E846F66E180EF5
:104D9000F76E09008950F00BF510896E09008150FB
:104DA000F51401E12B812B5102E13BEF0DF01FEFD8
:0C4DB0000DF000F000F000F000F000F04A
:104DC0002C5102E13BEF0DF01FEF0DF000F000F071
:104DD00000F000F000F000F000F000F000F000F053
:104DE00000F000F000F000F000F000F000F000F043
:104DF00000F000F000F000F000F000F000F000F033
:104E00003BEF0DF01FEF0DF000F000F000F000F0B0
:104E100000F000F000F000F000F000F000F000F012
:104E200000F000F000F000F000F000F000F000F002
:104E300000F000F000F000F000F000F000F000F0F2
:104E4000275102E03BEF0DF01FEF0DF000F000F0F6
:104E500000F000F000F000F000F000F000F000F0D2
:104E600000F000F000F000F000F000F000F000F0C2
:104E700000F000F000F000F000F000F000F000F0B2
:104E8000205102E13BEF0DF01FEF0DF000F000F0BC
:104E900000F000F000F000F000F000F000F000F092
:104EA00000F000F000F000F000F000F000F000F082
:104EB00000F000F000F000F000F000F000F000F072
:104EC000215102E03BEF0DF01FEF0DF000F000F07C
:104ED00000F000F000F000F000F000F000F000F052
:104EE00000F000F000F000F000F000F000F000F042
:104EF00000F000F000F000F000F000F000F000F032
:104F0000295102E03BEF0DF01FEF0DF000F000F033
:104F100000F000F000F000F000F000F000F000F011
:104F200000F000F000F000F000F000F000F000F001
:104F300000F000F000F000F000F000F000F000F0F1
:104F40002A5102E03BEF0DF01FEF0DF000F000F0F2
:104F500000F000F000F000F000F000F000F000F0D1
:104F600000F000F000F000F000F000F000F000F0C1
:104F700000F000F000F000F000F000F000F000F0B1
:104F80002B91F00E33150FE13351E846F66E180EF3
:104F9000F76E09008950F00BF510896E09008150F9
:104FA000F51401E12B812B5102E03BEF0DF01FEFD7
:0C4FB0000DF000F000F000F000F000F048
:104FC0002C5102E03BEF0DF01FEF0DF000F000F070
:104FD00000F000F000F000F000F000F000F000F051
:104FE00000F000F000F000F000F000F000F000F041
:104FF00000F000F000F000F000F000F000F000F031
:10500000000E000EE96EEC50301106E6E26EE90685
:10501000EFCFE1FFE75007D0A00FF76EE906EFCF23
:10502000F6FF0800F550206F002B01E3012B180E4E
:0E503000316FCC0E326F100000F000F000F077
:10504000010E020EE96EEC50301106E6E26EE90642
:10505000EFCFE1FFE75007D0A00FF76EE906EFCFE3
:10506000F6FF0800F550206F022B01E3032B180E0A
:0E507000316FCC0E326F100000F000F000F037
:10508000020E040EE96EEC50301106E6E26EE906FF
:10509000EFCFE1FFE75007D0A00FF76EE906EFCFA3
:1050A000F6FF0800F550206F042B01E3052B180EC6
:0E50B000316FCC0E326F100000F000F000F0F7
:1050C000030E060EE96EEC50301106E6E26EE906BC
:1050D000EFCFE1FFE75007D0A00FF76EE906EFCF63
:1050E000F6FF0800F550206F062B01E3072B180E82
:0E50F000316FCC0E326F100000F000F000F0B7
:10510000040E080EE96EEC50301106E6E26EE90678
:10511000EFCFE1FFE75007D0A00FF76EE906EFCF22
:10512000F6FF0800F550206F082B01E3092B180E3D
:0E513000316FCC0E326F100000F000F000F076
:10514000050E0A0EE96EEC50301106E6E26EE90635
:10515000EFCFE1FFE75007D0A00FF76EE906EFCFE2
:10516000F6FF0800F550206F0A2B01E30B2B180EF9
:0E517000316FCC0E326F100000F000F000F036
:10518000060E0C0EE96EEC50301106E6E26EE906F2
:10519000EFCFE1FFE75007D0A00FF76EE906EFCFA2
:1051A000F6FF0800F550206F0C2B01E30D2B180EB5
:0E51B000316FCC0E326F100000F000F000F0F6
:1051C000070E0E0EE96EEC50301106E6E26EE906AF
:1051D000EFCFE1FFE75007D0A00FF76EE906EFCF62
:1051E000F6FF0800F550206F0E2B01E30F2B180E71
:0E51F000316FCC0E326F100000F000F000F0B6
:10520000080E100EE96EEC50301106E6E26EE9066B
:10521000EFCFE1FFE75007D0A00FF76EE906EFCF21
:10522000F6FF0800F550206F102B01E3112B180E2C
:0E523000316FCC0E326F100000F000F000F075
:10524000090E120EE96EEC50301106E6E26EE90628
:10525000EFCFE1FFE75007D0A00FF76EE906EFCFE1
:10526000F6FF0800F550206F122B01E3132B180EE8
:0E527000316FCC0E326F100000F000F000F035
:105280000A0E140EE96EEC50301106E6E26EE906E5
:10529000EFCFE1FFE75007D0A00FF76EE906EFCFA1
:1052A000F6FF0800F550206F142B01E3152B180EA4
:0E52B000316FCC0E326F100000F000F000F0F5
:1052C0000B0E160EE96EEC50301106E6E26EE906A2
:1052D000EFCFE1FFE75007D0A00FF76EE906EFCF61
:1052E000F6FF0800F550206F162B01E3172B180E60
:0E52F000316FCC0E326F100000F000F000F0B5
:105300000C0E180EE96EEC50301106E6E26EE9065E
:10531000EFCFE1FFE75007D0A00FF76EE906EFCF20
:10532000F6FF0800F550206F182B01E3192B180E1B
:0E533000316FCC0E326F100000F000F000F074
:105340000D0E1A0EE96EEC50301106E6E26EE9061B
:10535000EFCFE1FFE75007D0A00FF76EE906EFCFE0
:10536000F6FF0800F550206F1A2B01E31B2B180ED7
:0E537000316FCC0E326F100000F000F000F034
:105380000E0E1C0EE96EEC50301106E6E26EE906D8
:10539000EFCFE1FFE75007D0A00FF76EE906EFCFA0
:1053A000F6FF0800F550206F1C2B01E31D2B180E93
:0E53B000316FCC0E326F100000F000F000F0F4
:1053C0000F0E1E0EE96EEC50301106E6E26EE90695
:1053D000EFCFE1FFE75007D0A00FF76EE906EFCF60
:1053E000F6FF0800F550206F1E2B01E31F2B180E4F
:0E53F000316FCC0E326F100000F000F000F0B4
:1054000020C72EF7000EE96EEC503011E26EE9066F
:10541000EFCFE1FF2EC7E7FF180E316FCC0E326FD2
:10542000100000F000F000F000F000F000F000F0DC
:0E54300000F000F000F000F000F000F000F0DE
:1054400020C72EF7020EE96EEC503011E26EE9062D
:10545000EFCFE1FF2EC7E7FF180E316FCC0E326F92
:10546000100000F000F000F000F000F000F000F09C
:0E54700000F000F000F000F000F000F000F09E
:1054800020C72EF7040EE96EEC503011E26EE906EB
:10549000EFCFE1FF2EC7E7FF180E316FCC0E326F52
:1054A000100000F000F000F000F000F000F000F05C
:0E54B00000F000F000F000F000F000F000F05E
:1054C00020C72EF7060EE96EEC503011E26EE906A9
:1054D000EFCFE1FF2EC7E7FF180E316FCC0E326F12
:1054E000100000F000F000F000F000F000F000F01C
:0E54F00000F000F000F000F000F000F000F01E
:1055000020C72EF7080EE96EEC503011E26EE90666
:10551000EFCFE1FF2EC7E7FF180E316FCC0E326FD1
:10552000100000F000F000F000F000F000F000F0DB
:0E55300000F000F000F000F000F000F000F0DD
:1055400020C72EF70A0EE96EEC503011E26EE90624
:10555000EFCFE1FF2EC7E7FF180E316FCC0E326F91
:10556000100000F000F000F000F000F000F000F09B
:0E55700000F000F000F000F000F000F000F09D
:1055800020C72EF70C0EE96EEC503011E26EE906E2
:10559000EFCFE1FF2EC7E7FF180E316FCC0E326F51
:1055A000100000F000F000F000F000F000F000F05B
:0E55B00000F000F000F000F000F000F000F05D
:1055C00020C72EF70E0EE96EEC503011E26EE906A0
:1055D000EFCFE1FF2EC7E7FF180E316FCC0E326F11
:1055E000100000F000F000F000F000F000F000F01B
:0E55F00000F000F000F000F000F000F000F01D
:1056000020C72EF7100EE96EEC503011E26EE9065D
:10561000EFCFE1FF2EC7E7FF180E316FCC0E326FD0
:10562000100000F000F000F000F000F000F000F0DA
:0E56300000F000F000F000F000F000F000F0DC
:1056400020C72EF7120EE96EEC503011E26EE9061B
:10565000EFCFE1FF2EC7E7FF180E316FCC0E326F90
:10566000100000F000F000F000F000F000F000F09A
:0E56700000F000F000F000F000F000F000F09C
:1056800020C72EF7140EE96EEC503011E26EE906D9
:10569000EFCFE1FF2EC7E7FF180E316FCC0E326F50
:1056A000100000F000F000F000F000F000F000F05A
:0E56B00000F000F000F000F000F000F000F05C
:1056C00020C72EF7160EE96EEC503011E26EE90697
:1056D000EFCFE1FF2EC7E7FF180E316FCC0E326F10
:1056E000100000F000F000F000F000F000F000F01A
:0E56F00000F000F000F000F000F000F000F01C
:1057000020C72EF7180EE96EEC503011E26EE90654
:10571000EFCFE1FF2EC7E7FF180E316FCC0E326FCF
:10572000100000F000F000F000F000F000F000F0D9
:0E57300000F000F000F000F000F000F000F0DB
:1057400020C72EF71A0EE96EEC503011E26EE90612
:10575000EFCFE1FF2EC7E7FF180E316FCC0E326F8F
:10576000100000F000F000F000F000F000F000F099
:0E57700000F000F000F000F000F000F000F09B
:1057800020C72EF71C0EE96EEC503011E26EE906D0
:10579000EFCFE1FF2EC7E7FF180E316FCC0E326F4F
:1057A000100000F000F000F000F000F000F000F059
:0E57B00000F000F000F000F000F000F000F05B
:1057C00020C72EF71E0EE96EEC503011E26EE9068E
:1057D000EFCFE1FF2EC7E7FF180E316FCC0E326F0F
:1057E000100000F000F000F000F000F000F000F019
:0E57F00000F000F000F000F000F000F000F01B
:1058000025C7E9FFE946EF2A01E3EC2A180E316FBC
:06581000CC0E326F100007
:1058400025C7E9FFE946EF2A01E3EC2A17EC01F04E
:0A585000180E316FCC0E326F1000FD
:1058800025C7E9FFE946EC50301106E6E26EE9066D
:10589000EFCFE1FFE75007D0A00FF76EE906EFCF9B
:1058A000F6FF0800F550336F25C7E9FFE946EF2AF8
:0E58B00001E3EC2A180E316FCC0E326F10009F
:1058C00025C7E9FFE946EF2A01E3EC2A180E316FFC
:0658D000CC0E326F100047
:1059000025C7E9FFE946EF2A01E3EC2A306B180EC0
:08591000316FCC0E326F100064
:1059400025C7E9FFE946EF2A01E3EC2A180E316F7B
:06595000CC0E326F1000C6
:1059800025C7E9FFE946EF2A01E3EC2A180E316F3B
:06599000CC0E326F100086
:1059C00025C7E9FFE946EF2A01E3EC2A180E316FFB
:0659D000CC0E326F100046
:105A0000060701E20707180E316FCC0E326F100047
:0E5A400012EC01F0180E316FCC0E326F100018
:0A5A8000180E316FCC0E326F1000CB
:0A5AC000180E316FCC0E326F10008B
:0A5B0000180E316FCC0E326F10004A
:0A5B4000180E316FCC0E326F10000A
:0A5B8000180E316FCC0E326F1000CA
:105BC000180E316FCC0E326F1000266F226F256FCA
:105BD000253B0F0E25172217180E316FCC0E326F92
:025BE0001000B3
:105C000025C7E9FFE946EC50301106E6E26EE906E9
:105C1000EFCFE1FFE75007D0A00FF76EE906EFCF17
:105C2000F6FF0800F550EF2A01E3EC2A2893CDD7C0
:105C400025C7E9FFE946EC50301106E6E26EE906A9
:105C5000EFCFE1FFE75007D0A00FF76EE906EFCFD7
:105C6000F6FF0800F550EF2A01E3EC2A2883ADD7B0
:105C800025C7E9FFE946EC50301106E6E26EE90669
:105C9000EFCFE1FFE75007D0A00FF76EE906EFCF97
:105CA000F6FF0800F550206F25C7E9FFE946EF2A07
:0E5CB00001E3EC2A180E316FCC0E326F10009B
:105CC00020C72EF72551E846E96EEC50E26EE90652
:105CD000EFCFE1FF2EC7E7FF25C7E9FFE946EF0653
:0E5CE00001E2EC06180E316FCC0E326F100090
:105D000025C7E9FFE946EC50301106E6E26EE906E8
:105D1000EFCFE1FFE75007D0A00FF76EE906EFCF16
:105D2000F6FF0800F5502E6F21312E512023216BF4
:0C5D30002137180E316FCC0E326F1000BE
:105D400025C7E9FFE946EC50301106E6E26EE906A8
:105D5000EFCFE1FFE75007D0A00FF76EE906EFCFD6
:105D6000F6FF0800F5502E6F21312E512057216B80
:0C5D70002137180E316FCC0E326F10007E
:105D800021312033216B2137180E316FCC0E326F49
:025D9000100001
:105DC00025C7E9FFE946EC50301106E6E26EE90628
:105DD000EFCFE1FFE75007D0A00FF76EE906EFCF56
:105DE000F6FF0800F5502E6F21312E51205B216BFC
:0C5DF0002137180E316FCC0E326F1000FE
:105E000026C72EF72551E846E96EEC50E26EE9060A
:105E1000EFCFE1FF2EC7E7FF180E316FCC0E326FC8
:025E2000100070
:105E40002551100D2251F310266F26C72EF7040E90
:105E5000E96EEC503011E26EE906EFCFE1FF2EC79C
:105E6000E7FF22C725F7040701E20507180E316F87
:065E7000CC0E326F1000A1
:105E800027918B949482180E316FCC0E326F1000D4
:105EC00027818B849492180E316FCC0E326F1000A4
:105F000022C7E9FFE946EE50E16EF66EED50301122
:105F100003E6E26EE65004D0A00FF76E0900F550DC
:105F2000EF2A01E3EC2A2E6F21312E512023216B21
:0C5F30002137180E316FCC0E326F1000BC
:105F400022C7E9FFE946EE50E16EF66EED503011E2
:105F500003E6E26EE65004D0A00FF76E0900F5509C
:105F6000EF2A01E3EC2A2E6F21312E512057216BAD
:0C5F70002137180E316FCC0E326F10007C
:105F800021312037216B2137180E316FCC0E326F43
:025F90001000FF
:105FC00022C7E9FFE946EE50E16EF66EED50301162
:105FD00003E6E26EE65004D0A00FF76E0900F5501C
:105FE000EF2A01E3EC2A2E6F21312E51205B216B29
:0C5FF0002137180E316FCC0E326F1000FC
:10600000000EE96EEFCF20F7180E316FCC0E326F15
:10601000100000F000F000F000F000F000F000F0E0
:1060200000F000F000F000F000F000F000F000F0F0
:1060300000F000F000F000F000F000F000F000F0E0
:10604000020EE96EEFCF20F7180E316FCC0E326FD3
:10605000100000F000F000F000F000F000F000F0A0
:1060600000F000F000F000F000F000F000F000F0B0
:1060700000F000F000F000F000F000F000F000F0A0
:10608000040EE96EEFCF20F7180E316FCC0E326F91
:10609000100000F000F000F000F000F000F000F060
:1060A00000F000F000F000F000F000F000F000F070
:1060B00000F000F000F000F000F000F000F000F060
:1060C000060EE96EEFCF20F7180E316FCC0E326F4F
:1060D000100000F000F000F000F000F000F000F020
:1060E00000F000F000F000F000F000F000F000F030
:1060F00000F000F000F000F000F000F000F000F020
:10610000080EE96EEFCF20F7180E316FCC0E326F0C
:10611000100000F000F000F000F000F000F000F0DF
:1061200000F000F000F000F000F000F000F000F0EF
:1061300000F000F000F000F000F000F000F000F0DF
:106140000A0EE96EEFCF20F7180E316FCC0E326FCA
:10615000100000F000F000F000F000F000F000F09F
:1061600000F000F000F000F000F000F000F000F0AF
:1061700000F000F000F000F000F000F000F000F09F
:106180000C0EE96EEFCF20F7180E316FCC0E326F88
:10619000100000F000F000F000F000F000F000F05F
:1061A00000F000F000F000F000F000F000F000F06F
:1061B00000F000F000F000F000F000F000F000F05F
:1061C0000E0EE96EEFCF20F7180E316FCC0E326F46
:1061D000100000F000F000F000F000F000F000F01F
:1061E00000F000F000F000F000F000F000F000F02F
:1061F00000F000F000F000F000F000F000F000F01F
:10620000100EE96EEFCF20F7180E316FCC0E326F03
:10621000100000F000F000F000F000F000F000F0DE
:1062200000F000F000F000F000F000F000F000F0EE
:1062300000F000F000F000F000F000F000F000F0DE
:10624000120EE96EEFCF20F7180E316FCC0E326FC1
:10625000100000F000F000F000F000F000F000F09E
:1062600000F000F000F000F000F000F000F000F0AE
:1062700000F000F000F000F000F000F000F000F09E
:10628000140EE96EEFCF20F7180E316FCC0E326F7F
:10629000100000F000F000F000F000F000F000F05E
:1062A00000F000F000F000F000F000F000F000F06E
:1062B00000F000F000F000F000F000F000F000F05E
:1062C000160EE96EEFCF20F7180E316FCC0E326F3D
:1062D000100000F000F000F000F000F000F000F01E
:1062E00000F000F000F000F000F000F000F000F02E
:1062F00000F000F000F000F000F000F000F000F01E
:10630000180EE96EEFCF20F7180E316FCC0E326FFA
:10631000100000F000F000F000F000F000F000F0DD
:1063200000F000F000F000F000F000F000F000F0ED
:1063300000F000F000F000F000F000F000F000F0DD
:106340001A0EE96EEFCF20F7180E316FCC0E326FB8
:10635000100000F000F000F000F000F000F000F09D
:1063600000F000F000F000F000F000F000F000F0AD
:1063700000F000F000F000F000F000F000F000F09D
:106380001C0EE96EEFCF20F7180E316FCC0E326F76
:10639000100000F000F000F000F000F000F000F05D
:1063A00000F000F000F000F000F000F000F000F06D
:1063B00000F000F000F000F000F000F000F000F05D
:1063C0001E0EE96EEFCF20F7180E316FCC0E326F34
:1063D000100000F000F000F000F000F000F000F01D
:1063E00000F000F000F000F000F000F000F000F02D
:1063F00000F000F000F000F000F000F000F000F01D
:10640000000EE96EECCF20F7180E316FCC0E326F14
:10641000100000F000F000F000F000F000F000F0DC
:1064200000F000F000F000F000F000F000F000F0EC
:1064300000F000F000F000F000F000F000F000F0DC
:10644000020EE96EECCF20F7180E316FCC0E326FD2
:10645000100000F000F000F000F000F000F000F09C
:1064600000F000F000F000F000F000F000F000F0AC
:1064700000F000F000F000F000F000F000F000F09C
:10648000040EE96EECCF20F7180E316FCC0E326F90
:10649000100000F000F000F000F000F000F000F05C
:1064A00000F000F000F000F000F000F000F000F06C
:1064B00000F000F000F000F000F000F000F000F05C
:1064C000060EE96EECCF20F7180E316FCC0E326F4E
:1064D000100000F000F000F000F000F000F000F01C
:1064E00000F000F000F000F000F000F000F000F02C
:1064F00000F000F000F000F000F000F000F000F01C
:10650000080EE96EECCF20F7180E316FCC0E326F0B
:10651000100000F000F000F000F000F000F000F0DB
:1065200000F000F000F000F000F000F000F000F0EB
:1065300000F000F000F000F000F000F000F000F0DB
:106540000A0EE96EECCF20F7180E316FCC0E326FC9
:10655000100000F000F000F000F000F000F000F09B
:1065600000F000F000F000F000F000F000F000F0AB
:1065700000F000F000F000F000F000F000F000F09B
:106580000C0EE96EECCF20F7180E316FCC0E326F87
:10659000100000F000F000F000F000F000F000F05B
:1065A00000F000F000F000F000F000F000F000F06B
:1065B00000F000F000F000F000F000F000F000F05B
:1065C0000E0EE96EECCF20F7180E316FCC0E326F45
:1065D000100000F000F000F000F000F000F000F01B
:1065E00000F000F000F000F000F000F000F000F02B
:1065F00000F000F000F000F000F000F000F000F01B
:10660000100EE96EECCF20F7180E316FCC0E326F02
:10661000100000F000F000F000F000F000F000F0DA
:1066200000F000F000F000F000F000F000F000F0EA
:1066300000F000F000F000F000F000F000F000F0DA
:10664000120EE96EECCF20F7180E316FCC0E326FC0
:10665000100000F000F000F000F000F000F000F09A
:1066600000F000F000F000F000F000F000F000F0AA
:1066700000F000F000F000F000F000F000F000F09A
:10668000140EE96EECCF20F7180E316FCC0E326F7E
:10669000100000F000F000F000F000F000F000F05A
:1066A00000F000F000F000F000F000F000F000F06A
:1066B00000F000F000F000F000F000F000F000F05A
:1066C000160EE96EECCF20F7180E316FCC0E326F3C
:1066D000100000F000F000F000F000F000F000F01A
:1066E00000F000F000F000F000F000F000F000F02A
:1066F00000F000F000F000F000F000F000F000F01A
:10670000180EE96EECCF20F7180E316FCC0E326FF9
:10671000100000F000F000F000F000F000F000F0D9
:1067200000F000F000F000F000F000F000F000F0E9
:1067300000F000F000F000F000F000F000F000F0D9
:106740001A0EE96EECCF20F7180E316FCC0E326FB7
:10675000100000F000F000F000F000F000F000F099
:1067600000F000F000F000F000F000F000F000F0A9
:1067700000F000F000F000F000F000F000F000F099
:106780001C0EE96EECCF20F7180E316FCC0E326F75
:10679000100000F000F000F000F000F000F000F059
:1067A00000F000F000F000F000F000F000F000F069
:1067B00000F000F000F000F000F000F000F000F059
:1067C0001E0EE96EECCF20F7180E316FCC0E326F33
:1067D000100000F000F000F000F000F000F000F019
:1067E00000F000F000F000F000F000F000F000F029
:1067F00000F000F000F000F000F000F000F000F019
:10680000000EE96E20C7EFFF180E316FCC0E326F0D
:10681000100000F000F000F000F000F000F000F0D8
:1068200000F000F000F000F000F000F000F000F0E8
:1068300000F000F000F000F000F000F000F000F0D8
:10684000020EE96E20C7EFFF180E316FCC0E326FCB
:10685000100000F000F000F000F000F000F000F098
:1068600000F000F000F000F000F000F000F000F0A8
:1068700000F000F000F000F000F000F000F000F098
:10688000040EE96E20C7EFFF180E316FCC0E326F89
:10689000100000F000F000F000F000F000F000F058
:1068A00000F000F000F000F000F000F000F000F068
:1068B00000F000F000F000F000F000F000F000F058
:1068C000060EE96E20C7EFFF180E316FCC0E326F47
:1068D000100000F000F000F000F000F000F000F018
:1068E00000F000F000F000F000F000F000F000F028
:1068F00000F000F000F000F000F000F000F000F018
:10690000080EE96E20C7EFFF180E316FCC0E326F04
:10691000100000F000F000F000F000F000F000F0D7
:1069200000F000F000F000F000F000F000F000F0E7
:1069300000F000F000F000F000F000F000F000F0D7
:106940000A0EE96E20C7EFFF180E316FCC0E326FC2
:10695000100000F000F000F000F000F000F000F097
:1069600000F000F000F000F000F000F000F000F0A7
:1069700000F000F000F000F000F000F000F000F097
:106980000C0EE96E20C7EFFF180E316FCC0E326F80
:10699000100000F000F000F000F000F000F000F057
:1069A00000F000F000F000F000F000F000F000F067
:1069B00000F000F000F000F000F000F000F000F057
:1069C0000E0EE96E20C7EFFF180E316FCC0E326F3E
:1069D000100000F000F000F000F000F000F000F017
:1069E00000F000F000F000F000F000F000F000F027
:1069F00000F000F000F000F000F000F000F000F017
:106A0000100EE96E20C7EFFF180E316FCC0E326FFB
:106A1000100000F000F000F000F000F000F000F0D6
:106A200000F000F000F000F000F000F000F000F0E6
:106A300000F000F000F000F000F000F000F000F0D6
:106A4000120EE96E20C7EFFF180E316FCC0E326FB9
:106A5000100000F000F000F000F000F000F000F096
:106A600000F000F000F000F000F000F000F000F0A6
:106A700000F000F000F000F000F000F000F000F096
:106A8000140EE96E20C7EFFF180E316FCC0E326F77
:106A9000100000F000F000F000F000F000F000F056
:106AA00000F000F000F000F000F000F000F000F066
:106AB00000F000F000F000F000F000F000F000F056
:106AC000160EE96E20C7EFFF180E316FCC0E326F35
:106AD000100000F000F000F000F000F000F000F016
:106AE00000F000F000F000F000F000F000F000F026
:106AF00000F000F000F000F000F000F000F000F016
:106B0000180EE96E20C7EFFF180E316FCC0E326FF2
:106B1000100000F000F000F000F000F000F000F0D5
:106B200000F000F000F000F000F000F000F000F0E5
:106B300000F000F000F000F000F000F000F000F0D5
:106B40001A0EE96E20C7EFFF180E316FCC0E326FB0
:106B5000100000F000F000F000F000F000F000F095
:106B600000F000F000F000F000F000F000F000F0A5
:106B700000F000F000F000F000F000F000F000F095
:106B80001C0EE96E20C7EFFF180E316FCC0E326F6E
:106B9000100000F000F000F000F000F000F000F055
:106BA00000F000F000F000F000F000F000F000F065
:106BB00000F000F000F000F000F000F000F000F055
:106BC0001E0EE96E20C7EFFF180E316FCC0E326F2C
:106BD000100000F000F000F000F000F000F000F015
:106BE00000F000F000F000F000F000F000F000F025
:106BF00000F000F000F000F000F000F000F000F015
:106C0000000EE96E20C7ECFF180E316FCC0E326F0C
:106C1000100000F000F000F000F000F000F000F0D4
:106C200000F000F000F000F000F000F000F000F0E4
:106C300000F000F000F000F000F000F000F000F0D4
:106C4000020EE96E20C7ECFF180E316FCC0E326FCA
:106C5000100000F000F000F000F000F000F000F094
:106C600000F000F000F000F000F000F000F000F0A4
:106C700000F000F000F000F000F000F000F000F094
:106C8000040EE96E20C7ECFF180E316FCC0E326F88
:106C9000100000F000F000F000F000F000F000F054
:106CA00000F000F000F000F000F000F000F000F064
:106CB00000F000F000F000F000F000F000F000F054
:106CC000060EE96E20C7ECFF180E316FCC0E326F46
:106CD000100000F000F000F000F000F000F000F014
:106CE00000F000F000F000F000F000F000F000F024
:106CF00000F000F000F000F000F000F000F000F014
:106D0000080EE96E20C7ECFF180E316FCC0E326F03
:106D1000100000F000F000F000F000F000F000F0D3
:106D200000F000F000F000F000F000F000F000F0E3
:106D300000F000F000F000F000F000F000F000F0D3
:106D40000A0EE96E20C7ECFF180E316FCC0E326FC1
:106D5000100000F000F000F000F000F000F000F093
:106D600000F000F000F000F000F000F000F000F0A3
:106D700000F000F000F000F000F000F000F000F093
:106D80000C0EE96E20C7ECFF180E316FCC0E326F7F
:106D9000100000F000F000F000F000F000F000F053
:106DA00000F000F000F000F000F000F000F000F063
:106DB00000F000F000F000F000F000F000F000F053
:106DC0000E0EE96E20C7ECFF180E316FCC0E326F3D
:106DD000100000F000F000F000F000F000F000F013
:106DE00000F000F000F000F000F000F000F000F023
:106DF00000F000F000F000F000F000F000F000F013
:106E0000100EE96E20C7ECFF180E316FCC0E326FFA
:106E1000100000F000F000F000F000F000F000F0D2
:106E200000F000F000F000F000F000F000F000F0E2
:106E300000F000F000F000F000F000F000F000F0D2
:106E4000120EE96E20C7ECFF180E316FCC0E326FB8
:106E5000100000F000F000F000F000F000F000F092
:106E600000F000F000F000F000F000F000F000F0A2
:106E700000F000F000F000F000F000F000F000F092
:106E8000140EE96E20C7ECFF180E316FCC0E326F76
:106E9000100000F000F000F000F000F000F000F052
:106EA00000F000F000F000F000F000F000F000F062
:106EB00000F000F000F000F000F000F000F000F052
:106EC000160EE96E20C7ECFF180E316FCC0E326F34
:106ED000100000F000F000F000F000F000F000F012
:106EE00000F000F000F000F000F000F000F000F022
:106EF00000F000F000F000F000F000F000F000F012
:106F0000180EE96E20C7ECFF180E316FCC0E326FF1
:106F1000100000F000F000F000F000F000F000F0D1
:106F200000F000F000F000F000F000F000F000F0E1
:106F300000F000F000F000F000F000F000F000F0D1
:106F40001A0EE96E20C7ECFF180E316FCC0E326FAF
:106F5000100000F000F000F000F000F000F000F091
:106F600000F000F000F000F000F000F000F000F0A1
:106F700000F000F000F000F000F000F000F000F091
:106F80001C0EE96E20C7ECFF180E316FCC0E326F6D
:106F9000100000F000F000F000F000F000F000F051
:106FA00000F000F000F000F000F000F000F000F061
:106FB00000F000F000F000F000F000F000F000F051
:106FC0001E0EE96E20C7ECFF180E316FCC0E326F2B
:106FD000100000F000F000F000F000F000F000F011
:106FE00000F000F000F000F000F000F000F000F021
:106FF00000F000F000F000F000F000F000F000F011
:0A70000002D0FBEF0CF0C2EF0CF021
:0C704000275102E1FBEF0CF0C2EF0CF056
:0C708000205102E0FBEF0CF0C2EF0CF01E
:0C70C000215102E1FBEF0CF0C2EF0CF0DC
:10710000B8EF0CF0A2EF0CF000F000F000F000F08F
:1071100000F000F000F000F000F000F000F000F0EF
:1071200000F000F000F000F000F000F000F000F0DF
:0C71300000F000F000F000F000F000F0B3
:10714000275102E0B8EF0CF0A2EF0CF000F000F0D5
:1071500000F000F000F000F000F000F000F000F0AF
:1071600000F000F000F000F000F000F000F000F09F
:1071700000F000F000F000F000F000F000F000F08F
:10718000205102E1B8EF0CF0A2EF0CF000F000F09B
:1071900000F000F000F000F000F000F000F000F06F
:1071A00000F000F000F000F000F000F000F000F05F
:1071B00000F000F000F000F000F000F000F000F04F
:1071C000215102E0B8EF0CF0A2EF0CF000F000F05B
:1071D00000F000F000F000F000F000F000F000F02F
:1071E00000F000F000F000F000F000F000F000F01F
:1071F00000F000F000F000F000F000F000F000F00F
:1072000002D0B8EF0CF0A2EF0CF000F000F000F0AC
:1072100000F000F000F000F000F000F000F000F0EE
:1072200000F000F000F000F000F000F000F000F0DE
:0E72300000F000F000F000F000F000F000F0C0
:0C724000275102E0FBEF0CF0C2EF0CF055
:0C728000205102E1FBEF0CF0C2EF0CF01B
:0C72C000215102E0FBEF0CF0C2EF0CF0DB
:10730000283102E0B8EF0CF0A2EF0CF000F000F032
:1073100000F000F000F000F000F000F000F000F0ED
:1073200000F000F000F000F000F000F000F000F0DD
:1073300000F000F000F000F000F000F000F000F0CD
:10734000275102E1B8EF0CF0A2EF0CF000F000F0D2
:1073500000F000F000F000F000F000F000F000F0AD
:1073600000F000F000F000F000F000F000F000F09D
:1073700000F000F000F000F000F000F000F000F08D
:10738000205102E0B8EF0CF0A2EF0CF000F000F09A
:1073900000F000F000F000F000F000F000F000F06D
:1073A00000F000F000F000F000F000F000F000F05D
:1073B00000F000F000F000F000F000F000F000F04D
:1073C000215102E1B8EF0CF0A2EF0CF000F000F058
:1073D00000F000F000F000F000F000F000F000F02D
:1073E00000F000F000F000F000F000F000F000F01D
:1073F00000F000F000F000F000F000F000F000F00D
:10740000000E226F180E316FCC0E326F100000F09C
:1074100000F000F000F000F000F000F000F000F0EC
:1074200000F000F000F000F000F000F000F000F0DC
:1074300000F000F000F000F000F000F000F000F0CC
:10744000010E226F180E316FCC0E326F100000F05B
:1074500000F000F000F000F000F000F000F000F0AC
:1074600000F000F000F000F000F000F000F000F09C
:1074700000F000F000F000F000F000F000F000F08C
:10748000020E226F180E316FCC0E326F100000F01A
:1074900000F000F000F000F000F000F000F000F06C
:1074A00000F000F000F000F000F000F000F000F05C
:1074B00000F000F000F000F000F000F000F000F04C
:1074C000030E226F180E316FCC0E326F100000F0D9
:1074D00000F000F000F000F000F000F000F000F02C
:1074E00000F000F000F000F000F000F000F000F01C
:1074F00000F000F000F000F000F000F000F000F00C
:10750000040E226F180E316FCC0E326F100000F097
:1075100000F000F000F000F000F000F000F000F0EB
:1075200000F000F000F000F000F000F000F000F0DB
:1075300000F000F000F000F000F000F000F000F0CB
:10754000050E226F180E316FCC0E326F100000F056
:1075500000F000F000F000F000F000F000F000F0AB
:1075600000F000F000F000F000F000F000F000F09B
:1075700000F000F000F000F000F000F000F000F08B
:10758000060E226F180E316FCC0E326F100000F015
:1075900000F000F000F000F000F000F000F000F06B
:1075A00000F000F000F000F000F000F000F000F05B
:1075B00000F000F000F000F000F000F000F000F04B
:0E75C000070E226F180E316FCC0E326F1000C6
:10760000080E226F180E316FCC0E326F100000F092
:1076100000F000F000F000F000F000F000F000F0EA
:1076200000F000F000F000F000F000F000F000F0DA
:1076300000F000F000F000F000F000F000F000F0CA
:10764000090E226F180E316FCC0E326F100000F051
:1076500000F000F000F000F000F000F000F000F0AA
:1076600000F000F000F000F000F000F000F000F09A
:1076700000F000F000F000F000F000F000F000F08A
:107680000A0E226F180E316FCC0E326F100000F010
:1076900000F000F000F000F000F000F000F000F06A
:1076A00000F000F000F000F000F000F000F000F05A
:1076B00000F000F000F000F000F000F000F000F04A
:1076C0000B0E226F180E316FCC0E326F100000F0CF
:1076D00000F000F000F000F000F000F000F000F02A
:1076E00000F000F000F000F000F000F000F000F01A
:1076F00000F000F000F000F000F000F000F000F00A
:107700000C0E226F180E316FCC0E326F100000F08D
:1077100000F000F000F000F000F000F000F000F0E9
:1077200000F000F000F000F000F000F000F000F0D9
:1077300000F000F000F000F000F000F000F000F0C9
:107740000D0E226F180E316FCC0E326F100000F04C
:1077500000F000F000F000F000F000F000F000F0A9
:1077600000F000F000F000F000F000F000F000F099
:1077700000F000F000F000F000F000F000F000F089
:107780000E0E226F180E316FCC0E326F100000F00B
:1077900000F000F000F000F000F000F000F000F069
:1077A00000F000F000F000F000F000F000F000F059
:1077B00000F000F000F000F000F000F000F000F049
:1077C0000F0E226F180E316FCC0E326F100000F0CA
:1077D00000F000F000F000F000F000F000F000F029
:1077E00000F000F000F000F000F000F000F000F019
:1077F00000F000F000F000F000F000F000F000F009
:10780000000E256F180E316FCC0E326F100000F095
:1078100000F000F000F000F000F000F000F000F0E8
:1078200000F000F000F000F000F000F000F000F0D8
:1078300000F000F000F000F000F000F000F000F0C8
:10784000010E256F180E316FCC0E326F100000F054
:1078500000F000F000F000F000F000F000F000F0A8
:1078600000F000F000F000F000F000F000F000F098
:1078700000F000F000F000F000F000F000F000F088
:10788000020E256F180E316FCC0E326F100000F013
:1078900000F000F000F000F000F000F000F000F068
:1078A00000F000F000F000F000F000F000F000F058
:1078B00000F000F000F000F000F000F000F000F048
:1078C000030E256F180E316FCC0E326F100000F0D2
:1078D00000F000F000F000F000F000F000F000F028
:1078E00000F000F000F000F000F000F000F000F018
:1078F00000F000F000F000F000F000F000F000F008
:10790000040E256F180E316FCC0E326F100000F090
:1079100000F000F000F000F000F000F000F000F0E7
:1079200000F000F000F000F000F000F000F000F0D7
:1079300000F000F000F000F000F000F000F000F0C7
:10794000050E256F180E316FCC0E326F100000F04F
:1079500000F000F000F000F000F000F000F000F0A7
:1079600000F000F000F000F000F000F000F000F097
:1079700000F000F000F000F000F000F000F000F087
:10798000060E256F180E316FCC0E326F100000F00E
:1079900000F000F000F000F000F000F000F000F067
:1079A00000F000F000F000F000F000F000F000F057
:1079B00000F000F000F000F000F000F000F000F047
:1079C000070E256F180E316FCC0E326F100000F0CD
:1079D00000F000F000F000F000F000F000F000F027
:1079E00000F000F000F000F000F000F000F000F017
:1079F00000F000F000F000F000F000F000F000F007
:107A0000080E256F180E316FCC0E326F100000F08B
:107A100000F000F000F000F000F000F000F000F0E6
:107A200000F000F000F000F000F000F000F000F0D6
:107A300000F000F000F000F000F000F000F000F0C6
:107A4000090E256F180E316FCC0E326F100000F04A
:107A500000F000F000F000F000F000F000F000F0A6
:107A600000F000F000F000F000F000F000F000F096
:107A700000F000F000F000F000F000F000F000F086
:107A80000A0E256F180E316FCC0E326F100000F009
:107A900000F000F000F000F000F000F000F000F066
:107AA00000F000F000F000F000F000F000F000F056
:107AB00000F000F000F000F000F000F000F000F046
:107AC0000B0E256F180E316FCC0E326F100000F0C8
:107AD00000F000F000F000F000F000F000F000F026
:107AE00000F000F000F000F000F000F000F000F016
:107AF00000F000F000F000F000F000F000F000F006
:107B00000C0E256F180E316FCC0E326F100000F086
:107B100000F000F000F000F000F000F000F000F0E5
:107B200000F000F000F000F000F000F000F000F0D5
:107B300000F000F000F000F000F000F000F000F0C5
:107B40000D0E256F180E316FCC0E326F100000F045
:107B500000F000F000F000F000F000F000F000F0A5
:107B600000F000F000F000F000F000F000F000F095
:107B700000F000F000F000F000F000F000F000F085
:107B80000E0E256F180E316FCC0E326F100000F004
:107B900000F000F000F000F000F000F000F000F065
:107BA00000F000F000F000F000F000F000F000F055
:107BB00000F000F000F000F000F000F000F000F045
:107BC0000F0E256F180E316FCC0E326F100000F0C3
:107BD00000F000F000F000F000F000F000F000F025
:107BE00000F000F000F000F000F000F000F000F015
:107BF00000F000F000F000F000F000F000F000F005
:107C000025C7E9FFE946EC50301106E6E26EE906C9
:107C1000EFCFE1FFE75007D0A00FF76EE906EFCFF7
:107C2000F6FF0800F550206F180E316FCC0E326F42
:027C3000100042
:107C400025C7E9FFE946EC50301106E6E26EE90689
:107C5000EFCFE1FFE75007D0A00FF76EE906EFCFB7
:107C6000F6FF0800F5502013180E316FCC0E326F5E
:027C7000100002
:107C800025C7E9FFE946EC50301106E6E26EE90649
:107C9000EFCFE1FFE75007D0A00FF76EE906EFCF77
:107CA000F6FF0800F5502017180E316FCC0E326F1A
:027CB0001000C2
:107CC00025C7E9FFE946EC50301106E6E26EE90609
:107CD000EFCFE1FFE75007D0A00FF76EE906EFCF37
:107CE000F6FF0800F550201B180E316FCC0E326FD6
:027CF000100082
:107D000025C7E9FFE946EC50301106E6E26EE906C8
:107D1000EFCFE1FFE75007D0A00FF76EE906EFCFF6
:107D2000F6FF0800F5502027216B2137180E316F20
:067D3000CC0E326F1000C2
:107D400025C7E9FFE946EC50301106E6E26EE90688
:107D5000EFCFE1FFE75007D0A00FF76EE906EFCFB6
:107D6000F6FF0800F5502E6F010EE8322E51205715
:0E7D7000216B2137180E316FCC0E326F1000D0
:107D8000E86AE8302033216B2137180E316FCC0EB2
:047D9000326F10003E
:107DC00025C7E9FFE946EC50301106E6E26EE90608
:107DD000EFCFE1FFE75007D0A00FF76EE906EFCF36
:107DE000F6FF0800F550205F216B2137180E316F28
:067DF000CC0E326F100002
:107E000022C7E9FFE946EE50E16EF66EED50301103
:107E100003E6E26EE65004D0A00FF76E0900F550BD
:107E2000EF2A01E3EC2A206F180E316FCC0E326F6F
:027E3000100040
:107E400022C7E9FFE946EE50E16EF66EED503011C3
:107E500003E6E26EE65004D0A00FF76E0900F5507D
:107E6000EF2A01E3EC2A2013180E316FCC0E326F8B
:027E7000100000
:107E800022C7E9FFE946EE50E16EF66EED50301183
:107E900003E6E26EE65004D0A00FF76E0900F5503D
:107EA000EF2A01E3EC2A2017180E316FCC0E326F47
:027EB0001000C0
:107EC00022C7E9FFE946EE50E16EF66EED50301143
:107ED00003E6E26EE65004D0A00FF76E0900F550FD
:107EE000EF2A01E3EC2A201B180E316FCC0E326F03
:027EF000100080
:107F000022C7E9FFE946EE50E16EF66EED50301102
:107F100003E6E26EE65004D0A00FF76E0900F550BC
:107F2000EF2A01E3EC2A2027216B2137180E316F4D
:067F3000CC0E326F1000C0
:107F400022C7E9FFE946EE50E16EF66EED503011C2
:107F500003E6E26EE65004D0A00FF76E0900F5507C
:107F6000EF2A01E3EC2A2E6F010EE8302E51205744
:0E7F7000216B2137180E316FCC0E326F1000CE
:107F8000E86AE8302037216B2137180E316FCC0EAC
:047F9000326F10003C
:107FC00022C7E9FFE946EE50E16EF66EED50301142
:107FD00003E6E26EE65004D0A00FF76E0900F550FC
:107FE000EF2A01E3EC2A205F216B2137180E316F55
:067FF000CC0E326F100000
:020000040030CA
:04000000220E201E8E
:020005008080F9
:00000001FF
